:020000040000FA
:0400000000001F28B5
:08000800B30A0B1139181E2880
:100010003308203C031D1E283008203C03191428F7
:1000200030088000840AB10A6A20B3010C308100D4
:100030004130B000F41031083921F41409000000F7
:100040008312031386148316031388018316031384
:1000500047308100831203138101A0308B004921B6
:100060004130B0000030B300C030B1005B30B200AE
:100070000030B4000030B5000030B6000030B700EA
:100080000030B8000030B9003430840002214A202A
:1000900075284928861C4D285E28B00AB30130080F
:1000A0005B3C031D572854282030B0005E283008E0
:1000B000213C031D5E285C284130B00039186928B6
:1000C00030083921F41031083921F414FF302F2180
:1000D0004A2808003008203C031972283108C53C22
:1000E000031D742839141E28080064213830BB0011
:1000F0008030BC00F41080303921F414861C2F2885
:10010000F220861C2F28FA302F21861C2F28FA3047
:100110002F21861C2F28BB033B08333C031D7A2864
:100120003430BB00F4103C083921F414203039215C
:10013000F410BC0A3C083921F414861C2F28F22044
:10014000861C2F28FA302F21861C2F28FA302F21C9
:100150003C08903C031D9228D030BC00BC03F41036
:100160003C083921F414F220861C2F28F414203086
:100170003921861C2F28FA302F21861C2F28FA308F
:100180002F21861C2F283C08C03C031DAE28F410EC
:10019000C0303921F414F220861C2F28F4142030AA
:1001A0003921861C2F28FA302F21861C2F28FA305F
:1001B0002F21861C2F28BB0A3B08393C031DC7286A
:1001C000F410C0303921F41420303921861C2F2836
:1001D000FA302F21861C2F28FA302F21861C2F2839
:1001E000762849283B088400861C2F280008003CFC
:1001F0000319080000083921840A0408393C031D4A
:10020000F4280800F41080303921F41445303921E5
:100210006E303921743039216530392172303921FD
:10022000203039215330392174303921723039214D
:10023000693039216E30392167303921F4103108A5
:100240003921F41430083921F41031083921F4141B
:100250000800F930F0000000F00B2B290800F10035
:100260002921F10B3029080008152921081129211D
:100270000800F500F0398800F41888143421292189
:10028000F50E7508F0398800F418881434212921F6
:10029000080064302F21F030F40030308800342121
:1002A00005302F213421292134210812342128300E
:1002B0003921083039210130392106303921803087
:1002C00039210F303921080064302F21F030F4003B
:1002D00030308800342105302F2134212921342168
:1002E00008123421283039210830392101303921D0
:1002F0000630392180303921F4302F21F4302F217C
:060300000C303921080059
:02400E00713708
:00000001FF
